{
  "_format": "hh-sol-artifact-1",
  "contractName": "LogStorage",
  "sourceName": "contracts/LogStorage.sol",
  "abi": [
    {
      "inputs": [],
      "stateMutability": "nonpayable",
      "type": "constructor"
    },
    {
      "anonymous": false,
      "inputs": [
        {
          "indexed": true,
          "internalType": "string",
          "name": "hash",
          "type": "string"
        },
        {
          "indexed": false,
          "internalType": "uint256",
          "name": "timestamp",
          "type": "uint256"
        },
        {
          "indexed": true,
          "internalType": "address",
          "name": "storedBy",
          "type": "address"
        }
      ],
      "name": "HashStored",
      "type": "event"
    },
    {
      "anonymous": false,
      "inputs": [
        {
          "indexed": true,
          "internalType": "address",
          "name": "previousOwner",
          "type": "address"
        },
        {
          "indexed": true,
          "internalType": "address",
          "name": "newOwner",
          "type": "address"
        }
      ],
      "name": "OwnershipTransferred",
      "type": "event"
    },
    {
      "inputs": [
        {
          "internalType": "uint256",
          "name": "index",
          "type": "uint256"
        }
      ],
      "name": "getHashByIndex",
      "outputs": [
        {
          "internalType": "string",
          "name": "",
          "type": "string"
        }
      ],
      "stateMutability": "view",
      "type": "function"
    },
    {
      "inputs": [],
      "name": "getHashCount",
      "outputs": [
        {
          "internalType": "uint256",
          "name": "",
          "type": "uint256"
        }
      ],
      "stateMutability": "view",
      "type": "function"
    },
    {
      "inputs": [
        {
          "internalType": "string",
          "name": "hash",
          "type": "string"
        }
      ],
      "name": "getHashTimestamp",
      "outputs": [
        {
          "internalType": "uint256",
          "name": "",
          "type": "uint256"
        }
      ],
      "stateMutability": "view",
      "type": "function"
    },
    {
      "inputs": [],
      "name": "getHashes",
      "outputs": [
        {
          "internalType": "string[]",
          "name": "",
          "type": "string[]"
        }
      ],
      "stateMutability": "view",
      "type": "function"
    },
    {
      "inputs": [],
      "name": "getInfo",
      "outputs": [
        {
          "internalType": "address",
          "name": "_owner",
          "type": "address"
        },
        {
          "internalType": "uint256",
          "name": "_hashCount",
          "type": "uint256"
        },
        {
          "internalType": "uint256",
          "name": "_blockNumber",
          "type": "uint256"
        },
        {
          "internalType": "uint256",
          "name": "_timestamp",
          "type": "uint256"
        }
      ],
      "stateMutability": "view",
      "type": "function"
    },
    {
      "inputs": [
        {
          "internalType": "uint256",
          "name": "count",
          "type": "uint256"
        }
      ],
      "name": "getLastHashes",
      "outputs": [
        {
          "internalType": "string[]",
          "name": "",
          "type": "string[]"
        }
      ],
      "stateMutability": "view",
      "type": "function"
    },
    {
      "inputs": [
        {
          "internalType": "string",
          "name": "",
          "type": "string"
        }
      ],
      "name": "hashExists",
      "outputs": [
        {
          "internalType": "bool",
          "name": "",
          "type": "bool"
        }
      ],
      "stateMutability": "view",
      "type": "function"
    },
    {
      "inputs": [
        {
          "internalType": "string",
          "name": "",
          "type": "string"
        }
      ],
      "name": "hashTimestamps",
      "outputs": [
        {
          "internalType": "uint256",
          "name": "",
          "type": "uint256"
        }
      ],
      "stateMutability": "view",
      "type": "function"
    },
    {
      "inputs": [
        {
          "internalType": "uint256",
          "name": "",
          "type": "uint256"
        }
      ],
      "name": "hashes",
      "outputs": [
        {
          "internalType": "string",
          "name": "",
          "type": "string"
        }
      ],
      "stateMutability": "view",
      "type": "function"
    },
    {
      "inputs": [],
      "name": "owner",
      "outputs": [
        {
          "internalType": "address",
          "name": "",
          "type": "address"
        }
      ],
      "stateMutability": "view",
      "type": "function"
    },
    {
      "inputs": [
        {
          "internalType": "string",
          "name": "hash",
          "type": "string"
        }
      ],
      "name": "storeHash",
      "outputs": [],
      "stateMutability": "nonpayable",
      "type": "function"
    },
    {
      "inputs": [
        {
          "internalType": "string[]",
          "name": "_hashes",
          "type": "string[]"
        }
      ],
      "name": "storeMultipleHashes",
      "outputs": [],
      "stateMutability": "nonpayable",
      "type": "function"
    },
    {
      "inputs": [
        {
          "internalType": "address",
          "name": "newOwner",
          "type": "address"
        }
      ],
      "name": "transferOwnership",
      "outputs": [],
      "stateMutability": "nonpayable",
      "type": "function"
    },
    {
      "inputs": [
        {
          "internalType": "string",
          "name": "hash",
          "type": "string"
        }
      ],
      "name": "verifyHash",
      "outputs": [
        {
          "internalType": "bool",
          "name": "",
          "type": "bool"
        }
      ],
      "stateMutability": "view",
      "type": "function"
    }
  ],
  "bytecode": "0x608060405234801561001057600080fd5b50336000806101000a81548173ffffffffffffffffffffffffffffffffffffffff021916908373ffffffffffffffffffffffffffffffffffffffff1602179055503373ffffffffffffffffffffffffffffffffffffffff16600073ffffffffffffffffffffffffffffffffffffffff167f8be0079c531659141344cd1fd0a4f28419497f9722a3daafe3b4186f6b6457e060405160405180910390a3611b48806100bb6000396000f3fe608060405234801561001057600080fd5b50600436106100ea5760003560e01c80638da5cb5b1161008c578063db7567c911610066578063db7567c914610262578063e0e04e7a14610292578063ec058186146102c2578063f2fde38b146102f2576100ea565b80638da5cb5b146101f85780639871e51014610216578063bab29a4d14610246576100ea565b80636f02ac65116100c85780636f02ac651461015e57806371dc61cb1461018e57806383b3847a146101aa57806386fb2813146101c8576100ea565b80634245d48e146100ef578063501895ae1461010d5780635a9b0b891461013d575b600080fd5b6100f761030e565b6040516101049190610f19565b60405180910390f35b61012760048036038101906101229190610f85565b6103e7565b6040516101349190610ffc565b60405180910390f35b610145610493565b604051610155949392919061106e565b60405180910390f35b61017860048036038101906101739190610f85565b6104d0565b6040516101859190610f19565b60405180910390f35b6101a860048036038101906101a391906111e8565b61064a565b005b6101b26107f0565b6040516101bf9190611231565b60405180910390f35b6101e260048036038101906101dd91906111e8565b6107fd565b6040516101ef9190611267565b60405180910390f35b610200610832565b60405161020d9190611282565b60405180910390f35b610230600480360381019061022b91906111e8565b610856565b60405161023d9190611267565b60405180910390f35b610260600480360381019061025b9190611383565b61088c565b005b61027c600480360381019061027791906111e8565b610a55565b6040516102899190611231565b60405180910390f35b6102ac60048036038101906102a791906111e8565b610ae8565b6040516102b99190611231565b60405180910390f35b6102dc60048036038101906102d79190610f85565b610b16565b6040516102e99190610ffc565b60405180910390f35b61030c600480360381019061030791906113f8565b610c0d565b005b60606001805480602002602001604051908101604052809291908181526020016000905b828210156103de57838290600052602060002001805461035190611454565b80601f016020809104026020016040519081016040528092919081815260200182805461037d90611454565b80156103ca5780601f1061039f576101008083540402835291602001916103ca565b820191906000526020600020905b8154815290600101906020018083116103ad57829003601f168201915b505050505081526020019060010190610332565b50505050905090565b600181815481106103f757600080fd5b90600052602060002001600091509050805461041290611454565b80601f016020809104026020016040519081016040528092919081815260200182805461043e90611454565b801561048b5780601f106104605761010080835404028352916020019161048b565b820191906000526020600020905b81548152906001019060200180831161046e57829003601f168201915b505050505081565b60008060008060008054906101000a900473ffffffffffffffffffffffffffffffffffffffff166001805490504342935093509350935090919293565b6060600060018054905083116104e657826104ed565b6001805490505b905060008167ffffffffffffffff81111561050b5761050a6110bd565b5b60405190808252806020026020018201604052801561053e57816020015b60608152602001906001900390816105295790505b50905060005b8281101561063f576001818460018054905061056091906114b4565b61056a91906114e8565b8154811061057b5761057a61151c565b5b90600052602060002001805461059090611454565b80601f01602080910402602001604051908101604052809291908181526020018280546105bc90611454565b80156106095780601f106105de57610100808354040283529160200191610609565b820191906000526020600020905b8154815290600101906020018083116105ec57829003601f168201915b50505050508282815181106106215761062061151c565b5b602002602001018190525080806106379061154b565b915050610544565b508092505050919050565b600081511161068e576040517f08c379a0000000000000000000000000000000000000000000000000000000008152600401610685906115df565b60405180910390fd5b60028160405161069e919061163b565b908152602001604051809103902060009054906101000a900460ff16156106fa576040517f08c379a00000000000000000000000000000000000000000000000000000000081526004016106f19061169e565b60405180910390fd5b60018190806001815401808255809150506001900390600052602060002001600090919091909150908161072e919061186a565b506001600282604051610741919061163b565b908152602001604051809103902060006101000a81548160ff02191690831515021790555042600382604051610777919061163b565b9081526020016040518091039020819055503373ffffffffffffffffffffffffffffffffffffffff16816040516107ae919061163b565b60405180910390207f18bd03127f9dfb5b91f6b0bfa5bc6b9875a70d69e532cff4d680b4fdc958dd22426040516107e59190611231565b60405180910390a350565b6000600180549050905090565b600060028260405161080f919061163b565b908152602001604051809103902060009054906101000a900460ff169050919050565b60008054906101000a900473ffffffffffffffffffffffffffffffffffffffff1681565b6002818051602081018201805184825260208301602085012081835280955050505050506000915054906101000a900460ff1681565b60005b8151811015610a515760028282815181106108ad576108ac61151c565b5b60200260200101516040516108c2919061163b565b908152602001604051809103902060009054906101000a900460ff16610a3e5760018282815181106108f7576108f661151c565b5b6020026020010151908060018154018082558091505060019003906000526020600020016000909190919091509081610930919061186a565b50600160028383815181106109485761094761151c565b5b602002602001015160405161095d919061163b565b908152602001604051809103902060006101000a81548160ff0219169083151502179055504260038383815181106109985761099761151c565b5b60200260200101516040516109ad919061163b565b9081526020016040518091039020819055503373ffffffffffffffffffffffffffffffffffffffff168282815181106109e9576109e861151c565b5b60200260200101516040516109fe919061163b565b60405180910390207f18bd03127f9dfb5b91f6b0bfa5bc6b9875a70d69e532cff4d680b4fdc958dd2242604051610a359190611231565b60405180910390a35b8080610a499061154b565b91505061088f565b5050565b6000600282604051610a67919061163b565b908152602001604051809103902060009054906101000a900460ff16610ac2576040517f08c379a0000000000000000000000000000000000000000000000000000000008152600401610ab990611988565b60405180910390fd5b600382604051610ad2919061163b565b9081526020016040518091039020549050919050565b6003818051602081018201805184825260208301602085012081835280955050505050506000915090505481565b60606001805490508210610b5f576040517f08c379a0000000000000000000000000000000000000000000000000000000008152600401610b56906119f4565b60405180910390fd5b60018281548110610b7357610b7261151c565b5b906000526020600020018054610b8890611454565b80601f0160208091040260200160405190810160405280929190818152602001828054610bb490611454565b8015610c015780601f10610bd657610100808354040283529160200191610c01565b820191906000526020600020905b815481529060010190602001808311610be457829003601f168201915b50505050509050919050565b60008054906101000a900473ffffffffffffffffffffffffffffffffffffffff1673ffffffffffffffffffffffffffffffffffffffff163373ffffffffffffffffffffffffffffffffffffffff1614610c9b576040517f08c379a0000000000000000000000000000000000000000000000000000000008152600401610c9290611a86565b60405180910390fd5b600073ffffffffffffffffffffffffffffffffffffffff168173ffffffffffffffffffffffffffffffffffffffff1603610d0a576040517f08c379a0000000000000000000000000000000000000000000000000000000008152600401610d0190611af2565b60405180910390fd5b8073ffffffffffffffffffffffffffffffffffffffff1660008054906101000a900473ffffffffffffffffffffffffffffffffffffffff1673ffffffffffffffffffffffffffffffffffffffff167f8be0079c531659141344cd1fd0a4f28419497f9722a3daafe3b4186f6b6457e060405160405180910390a3806000806101000a81548173ffffffffffffffffffffffffffffffffffffffff021916908373ffffffffffffffffffffffffffffffffffffffff16021790555050565b600081519050919050565b600082825260208201905092915050565b6000819050602082019050919050565b600081519050919050565b600082825260208201905092915050565b60005b83811015610e2d578082015181840152602081019050610e12565b60008484015250505050565b6000601f19601f8301169050919050565b6000610e5582610df3565b610e5f8185610dfe565b9350610e6f818560208601610e0f565b610e7881610e39565b840191505092915050565b6000610e8f8383610e4a565b905092915050565b6000602082019050919050565b6000610eaf82610dc7565b610eb98185610dd2565b935083602082028501610ecb85610de3565b8060005b85811015610f075784840389528151610ee88582610e83565b9450610ef383610e97565b925060208a01995050600181019050610ecf565b50829750879550505050505092915050565b60006020820190508181036000830152610f338184610ea4565b905092915050565b6000604051905090565b600080fd5b600080fd5b6000819050919050565b610f6281610f4f565b8114610f6d57600080fd5b50565b600081359050610f7f81610f59565b92915050565b600060208284031215610f9b57610f9a610f45565b5b6000610fa984828501610f70565b91505092915050565b600082825260208201905092915050565b6000610fce82610df3565b610fd88185610fb2565b9350610fe8818560208601610e0f565b610ff181610e39565b840191505092915050565b600060208201905081810360008301526110168184610fc3565b905092915050565b600073ffffffffffffffffffffffffffffffffffffffff82169050919050565b60006110498261101e565b9050919050565b6110598161103e565b82525050565b61106881610f4f565b82525050565b60006080820190506110836000830187611050565b611090602083018661105f565b61109d604083018561105f565b6110aa606083018461105f565b95945050505050565b600080fd5b600080fd5b7f4e487b7100000000000000000000000000000000000000000000000000000000600052604160045260246000fd5b6110f582610e39565b810181811067ffffffffffffffff82111715611114576111136110bd565b5b80604052505050565b6000611127610f3b565b905061113382826110ec565b919050565b600067ffffffffffffffff821115611153576111526110bd565b5b61115c82610e39565b9050602081019050919050565b82818337600083830152505050565b600061118b61118684611138565b61111d565b9050828152602081018484840111156111a7576111a66110b8565b5b6111b2848285611169565b509392505050565b600082601f8301126111cf576111ce6110b3565b5b81356111df848260208601611178565b91505092915050565b6000602082840312156111fe576111fd610f45565b5b600082013567ffffffffffffffff81111561121c5761121b610f4a565b5b611228848285016111ba565b91505092915050565b6000602082019050611246600083018461105f565b92915050565b60008115159050919050565b6112618161124c565b82525050565b600060208201905061127c6000830184611258565b92915050565b60006020820190506112976000830184611050565b92915050565b600067ffffffffffffffff8211156112b8576112b76110bd565b5b602082029050602081019050919050565b600080fd5b60006112e16112dc8461129d565b61111d565b90508083825260208201905060208402830185811115611304576113036112c9565b5b835b8181101561134b57803567ffffffffffffffff811115611329576113286110b3565b5b80860161133689826111ba565b85526020850194505050602081019050611306565b5050509392505050565b600082601f83011261136a576113696110b3565b5b813561137a8482602086016112ce565b91505092915050565b60006020828403121561139957611398610f45565b5b600082013567ffffffffffffffff8111156113b7576113b6610f4a565b5b6113c384828501611355565b91505092915050565b6113d58161103e565b81146113e057600080fd5b50565b6000813590506113f2816113cc565b92915050565b60006020828403121561140e5761140d610f45565b5b600061141c848285016113e3565b91505092915050565b7f4e487b7100000000000000000000000000000000000000000000000000000000600052602260045260246000fd5b6000600282049050600182168061146c57607f821691505b60208210810361147f5761147e611425565b5b50919050565b7f4e487b7100000000000000000000000000000000000000000000000000000000600052601160045260246000fd5b60006114bf82610f4f565b91506114ca83610f4f565b92508282039050818111156114e2576114e1611485565b5b92915050565b60006114f382610f4f565b91506114fe83610f4f565b925082820190508082111561151657611515611485565b5b92915050565b7f4e487b7100000000000000000000000000000000000000000000000000000000600052603260045260246000fd5b600061155682610f4f565b91507fffffffffffffffffffffffffffffffffffffffffffffffffffffffffffffffff820361158857611587611485565b5b600182019050919050565b7f486173682063616e6e6f7420626520656d707479000000000000000000000000600082015250565b60006115c9601483610fb2565b91506115d482611593565b602082019050919050565b600060208201905081810360008301526115f8816115bc565b9050919050565b600081905092915050565b600061161582610df3565b61161f81856115ff565b935061162f818560208601610e0f565b80840191505092915050565b6000611647828461160a565b915081905092915050565b7f4861736820616c72656164792065786973747300000000000000000000000000600082015250565b6000611688601383610fb2565b915061169382611652565b602082019050919050565b600060208201905081810360008301526116b78161167b565b9050919050565b60008190508160005260206000209050919050565b60006020601f8301049050919050565b600082821b905092915050565b6000600883026117207fffffffffffffffffffffffffffffffffffffffffffffffffffffffffffffffff826116e3565b61172a86836116e3565b95508019841693508086168417925050509392505050565b6000819050919050565b600061176761176261175d84610f4f565b611742565b610f4f565b9050919050565b6000819050919050565b6117818361174c565b61179561178d8261176e565b8484546116f0565b825550505050565b600090565b6117aa61179d565b6117b5818484611778565b505050565b5b818110156117d9576117ce6000826117a2565b6001810190506117bb565b5050565b601f82111561181e576117ef816116be565b6117f8846116d3565b81016020851015611807578190505b61181b611813856116d3565b8301826117ba565b50505b505050565b600082821c905092915050565b600061184160001984600802611823565b1980831691505092915050565b600061185a8383611830565b9150826002028217905092915050565b61187382610df3565b67ffffffffffffffff81111561188c5761188b6110bd565b5b6118968254611454565b6118a18282856117dd565b600060209050601f8311600181146118d457600084156118c2578287015190505b6118cc858261184e565b865550611934565b601f1984166118e2866116be565b60005b8281101561190a578489015182556001820191506020850194506020810190506118e5565b868310156119275784890151611923601f891682611830565b8355505b6001600288020188555050505b505050505050565b7f48617368206e6f7420666f756e64000000000000000000000000000000000000600082015250565b6000611972600e83610fb2565b915061197d8261193c565b602082019050919050565b600060208201905081810360008301526119a181611965565b9050919050565b7f496e646578206f7574206f6620626f756e647300000000000000000000000000600082015250565b60006119de601383610fb2565b91506119e9826119a8565b602082019050919050565b60006020820190508181036000830152611a0d816119d1565b9050919050565b7f4f6e6c79206f776e65722063616e2063616c6c20746869732066756e6374696f60008201527f6e00000000000000000000000000000000000000000000000000000000000000602082015250565b6000611a70602183610fb2565b9150611a7b82611a14565b604082019050919050565b60006020820190508181036000830152611a9f81611a63565b9050919050565b7f4e6577206f776e65722063616e6e6f74206265207a65726f2061646472657373600082015250565b6000611adc602083610fb2565b9150611ae782611aa6565b602082019050919050565b60006020820190508181036000830152611b0b81611acf565b905091905056fea264697066735822122017efe4fbd62101fb3d1caa8c25b1c2bef4d146273876b4fb61bb8ed8ecc87d5e64736f6c63430008130033",
  "linkReferences": {},
  "deployedLinkReferences": {}
}